:020000000C945E
:1000020030000C9400000C9400000C9400000C943E
:1000120000000C9400000C9400000C945D000C9401
:1000220000000C9400000C9400000C9400000C944E
:1000320000000C9400000C9400000C9400000C943E
:1000420000000C9400000C9400000C9400000C942E
:100052000000010101010400040054000000F894B2
:10006200EE27ECBBF1E0FBBFEBBFE5BF8DE0A2E00A
:10007200BB27ED938A95E9F780E098E0A0E6ED933F
:100082000197E9F7E8E5F0E085919591009761F035
:10009200A591B59105901590BF01F00105900D92C3
:1000A2000197E1F7FB01F0CFEFE5EDBFE8E0EEBF2E
:1000B200C0E6D2E00C949000EA93E1E0E093700293
:1000C200E9911895BA93AA93E0E0E0937002EFBD2C
:1000D200EAE0EEBDE0E0F0E0FDBDECBDE881F981D3
:1000E200A7EEB3E00E940102FBBDEABDE9B7E06101
:1000F200E9BFE5B7EF7CE5BFE5B7E068E5BFE091B2
:100102007002E03011F48895FACFE5B7EF77E5BFDA
:10011200E9B7EF7EE9BFE0E0EEBD22960895EFEF8A
:10012200EABBE0E0EBBBEFEFE7BBE0E0E8BBEFEF01
:10013200E4BBE0E0E5BBEFEFE1BBE0E0E2BBE3BF45
:10014200E2BFECBFEFBDEEBDEDBDECBDE7BDE6BD70
:10015200EBBDEABDE9BDE8BDE2BDE5BDE4BDE3BD81
:10016200E9BFE5BFE4BFEAB9E0E8E8B9E0E0E0BF33
:10017200E6B9EDB9E6BF789493D09BD030F0A4D025
:1001820098D018F0AAD095D008F418C05BBAE52D23
:10019200EE0FAE2FE52DAAD05E2EA0916002B09197
:1001A200610290DFA8D0B0D0A6D0BAD0A4D0C4D07B
:1001B200ECE3F0E060E070E0CBD070C0D2D0DAD0F7
:1001C20030F082D0D7D018F088D0D4D008F41FC035
:1001D20048BAE42DEE0FAE2FE42D88D04E2EA0911A
:1001E2006402B09165026EDFD0D0D8D0CED098D064
:1001F200CCD0A2D0EAEAF0E060E070E0E0936402E2
:10020200F0936502609366027093670247C0A9D0BB
:10021200C9D030F045D0C6D018F05FD0C3D008F4B2
:100222001FC075BAE72DEE0FAE2FE72D5FD07E2EE1
:10023200A0916802B091690245DFBFD0AFD0BDD0B6
:1002420063D0BBD079D0E2E2F1E060E070E0E0930D
:100252006802F093690260936A0270936B021EC097
:1002620062BAE62DEE0FAE2FE62D40D06E2EA09193
:100272006C02B0916D0226DFA9D090D0A7D044D0F5
:10028200A5D04ED0EEEAF1E060E070E0E0936C02BF
:10029200F0936D0260936E0270936F026DCFFFCF89
:1002A200E0916402F09165026091660270916702CA
:1002B2000895A0916002B0916102809162029091D2
:1002C20063020E9414020895E0916802F0916902AB
:1002D20060916A0270916B020895E0916C02F09154
:1002E2006D0260916E0270916F020895EE1FE0E060
:1002F200EE1FEA2B0895A0916002B09161028091F5
:100302006202909163020895CBDF0E94F001E093B4
:100312006402F09365026093660270936702089527
:10032200D3DF0E94F001E0936802F09369026093C8
:100332006A0270936B020895D0DF0E94F001E0938D
:100342006C02F0936D0260936E0270936F020895D7
:10035200E0936002F0936102609362027093630221
:100362000895E0916002F0916102609162027091E1
:1003720063020895A0916402B091650280916602C1
:10038200909167020E9414020895A0916402B091B4
:10039200650280916602909167020895E2DF0E94F1
:1003A200F001D6CFA0916802B091690280916A02F1
:1003B20090916B020E9414020895A0916802B0917C
:1003C200690280916A0290916B020895A0916C0279
:1003D200B0916D0280916E0290916F020895EA1BB6
:1003E200FB0B680B790B0895F195E195F0400895A8
:1003F200FA9FF02DEB9FF00DEA9FE02DF10D08958D
:1004020004D0F6DF0EF4F0DF0895E894F7FF02C09F
:10041200EBDF6894B7FF06C0A095B095119600F87F
:10042200039400FA0895EA17FB076807790708950D
:00000001FF
