:0E0000000C9430000C9400000C9400000C9442
:10000E0000000C9400000C9400000C9400000C9462
:10001E005D000C9400000C9400000C9400000C94F5
:10002E0000000C9400000C9400000C9400000C9442
:10003E0000000C9400000C9400000C9400000C9432
:10004E0000000C94000001010101040004005400A2
:10005E000000F894EE27ECBBF1E0FBBFEBBFE5BF71
:10006E008DE0A2E0BB27ED938A95E9F780E098E05A
:10007E00A0E6ED930197E9F7E8E5F0E0859195911B
:10008E00009761F0A591B59105901590BF01F00113
:10009E0005900D920197E1F7FB01F0CFEFE5EDBF73
:1000AE00E8E0EEBFC0E6D2E00C948900EA93E1E00E
:1000BE00E0937002E9911895E0E0E0937002EFBDD5
:1000CE00EAE0EEBDE0E0F0E0FDBDECBDEFE0F7E212
:1000DE00FBBDEABDE9B7E061E9BFE5B7EF7CE5BF7F
:1000EE00E5B7E068E5BFE0917002E03011F4889565
:1000FE00FACFE5B7EF77E5BFE9B7EF7EE9BFE0E00E
:10010E00EEBD0895EFEFEABBE0E0EBBBEFEFE7BB30
:10011E00E0E0E8BBEFEFE4BBE0E0E5BBEFEFE1BB17
:10012E00E0E0E2BBE3BFE2BFECBFEFBDEEBDEDBD75
:10013E00ECBDE7BDE6BDEBBDEABDE9BDE8BDE2BD88
:10014E00E5BDE4BDE3BDE9BFE5BFE4BFEAB9E0E864
:10015E00E8B9E0E0E0BFE6B9EDB9E6BF7894A0916A
:10016E006002B09161028091620290916302AC33A1
:10017E00E0E0BE07E0E08E07E0E09E0780F05BBAAD
:10018E00E52DEE0FAE2FE52DB1D05E2EE0E0E09323
:10019E006002E0936102E0936202E0936302A09139
:1001AE006402B09165028091660290916702AA3A4C
:1001BE00E0E0BE07E0E08E07E0E09E0780F048BA80
:1001CE00E42DEE0FAE2FE42D91D04E2EE0E0E09315
:1001DE006402E0936502E0936602E0936702A091E9
:1001EE006802B091690280916A0290916B02A2320C
:1001FE00E1E0BE07E0E08E07E0E09E0780F075BA12
:10020E00E72DEE0FAE2FE72D71D07E2EE0E0E093BE
:10021E006802E0936902E0936A02E0936B02A09198
:10022E006C02B0916D0280916E0290916F02AE3AA7
:10023E00E1E0BE07E0E08E07E0E09E0780F062BAE4
:10024E00E62DEE0FAE2FE62D51D06E2EE0E0E093B0
:10025E006C02E0936D02E0936E02E0936F02E09108
:10026E006002F0916102609162027091630243D06C
:10027E00E0936002F09361026093620270936302F6
:10028E00E0916402F09165026091660270916702DE
:10029E0032D0E0936402F09365026093660270932D
:1002AE006702E0916802F091690260916A027091B2
:1002BE006B0221D0E0936802F093690260936A02A8
:1002CE0070936B02E0916C02F0916D0260916E0280
:1002DE0070916F0210D0E0936C02F0936D026093F8
:1002EE006E0270936F02E8DE3ACFFFCFEE1FE0E0B2
:1002FE00EE1FEA2B0895E65FFF4F6F4F7F4F089575
:00000001FF
